:03000000020006F5
:03005F0002000399
:0300030002008870
:200062003098FD859982C29822AF8210990280FB8F9922759850758920758DE6758BE6D2E1
:200082008ED299C29822120075120062AF82C0071200ACE582D007600674DF5FFE80028FD3
:0A00A200068E078F8212006B80DFCC
:06003500E478FFF6D8FD9F
:200013007900E94400601B7A009000C4780075A000E493F2A308B8000205A0D9F4DAF275D0
:02003300A0FF2C
:20003B007800E84400600A790075A000E4F309D8FC7800E84400600C7900900000E4F0A3C5
:04005B00D8FCD9FAFA
:1400AC00AF82BF61004009EF24854004758201227582002297
:0D0006007581071200C0E58260030200034F
:0400C0007582002223
:00000001FF
